:100000000C94D7010C9408020C9408020C9408027A
:100010000C9408020C9408020C9408020C94080238
:100020000C9408020C9408020C9408020C94080228
:100030000C9408020C9408020C9408020C94080218
:100040000C9408020C9408020C9408020C94080208
:100050000C9408020C9408020C9408020C94212EB3
:100060000C9408020C94EB2D0C94C12D0C940802F6
:100070000C9408020C9408020C9408020C940802D8
:100080000C9408020C9408020C9408020C940802C8
:100090000C9408020C9408020C9408020C940802B8
:1000A0000C9408020C9408020C9408020C940802A8
:1000B0000C9408020C9408020C9408020C94080298
:1000C0000C9408020C9408020C9408020C948B2DDA
:1000D0000C94612D0C9408020C9408020C940802F4
:1000E0000C9408020C943E020C94AA030C94A003F6
:1000F0000C94A4030C94A9030C948E030C94310566
:100100000C942D050C946F020C946F030C94AE03A9
:100110000C94B1020C9477030C9484030C946B2E12
:100120000C947B030C94FE020C9492030C940A0230
:100130000C9473030C9488030C944D020C9461028C
:100140000C949C030C947E030C9490300C949603B6
:100150000C9469034E414E494E495459494E46CD7F
:10016000CCCC3D0AD7233C17B7D13877CC2B32956E
:1001700095E6241FB14F0A000020410000C842004C
:10018000401C4620BCBE4CCA1B0E5AAEC59D740016
:10019000407A10F35A00A0724E18090010A5D4E856
:1001A0000000E87648170000E40B54020000CA9AE9
:1001B0003B000000E1F5050000809698000000403B
:1001C000420F000000A08601000000102700000080
:1001D00000E803000000006400000000000A0000C6
:1001E0000000000100000000002C76D888DC674F7A
:1001F0000823DFC1DFAE59E1B1B796E5E3E453C6AA
:100200003AE651997696E8E6C28426EB898C9B62A1
:10021000ED407C6FFCEFBC9C9F40F2BAA56FA5F44B
:1002200090055A2AF75C936B6CF9676DC11BFCE073
:10023000E40D47FEF520E6B500D0ED902E030094C6
:100240003577050080841E080000204E0A0000005B
:10025000C80C333333330F986E12831141EF8D2165
:1002600014893BE65516CFFEE6DB18D1844B381BCC
:10027000F77C1D901DA4BBE424203284725E228191
:1002800000C9F124ECA1E53D27000021002400274E
:10029000002A002D00300033000101000004010796
:1002A000010A0100002200250028002B002E003149
:1002B00000340002010000050108010B01000020CC
:1002C000002300260029002C002F0032000001002E
:1002D00000030106010901050505050705080808D1
:1002E00008020202020A0A080804040404010101C7
:1002F00001010101010303030303030303040707CF
:10030000070C0C0C0C0C0C0C0C020202020606066C
:1003100006060606060B0B0B0B0B0B0B0B01021054
:10032000202008081020401020408002010201080F
:1003300004020101020408102040808040201008BF
:100340000402018004020180402010080402010818
:100350000402010102040810204080010204081078
:1003600020408000000A0B02090C0D0E0807030450
:10037000010000000000000000000000000000007C
:10038000000000000000000000000000000000125B
:10039000111000000000000000000000000000003C
:1003A000000000000000000000006B2E90301124BF
:1003B0001FBECFEFD1E2DEBFCDBF00E00CBF25E016
:1003C000A2EFB2E001C01D92A232B207E1F712E043
:1003D000A0E0B2E0EEEFF3E700E00BBF02C0079051
:1003E0000D92A23FB107D9F711E0C6EDD1E000E0D0
:1003F00006C021970109802FFE010E94A937C53D43
:10040000D10780E00807A9F70E943F2F0C94ED392F
:100410000C940000AF92BF92CF92DF92EF92FF92C6
:100420000F931F93CF93DF936C017B018B01040F1C
:10043000151FEB015E01AE18BF08C017D10759F0B8
:100440006991D601ED91FC910190F081E02DC601FA
:100450001995892B79F7C501DF91CF911F910F91E4
:10046000FF90EF90DF90CF90BF90AF900895FB0189
:1004700044815581608171810C940A02FC01538D85
:10048000448D252F30E0842F90E0821B930B54176E
:1004900010F0CF96089501970895FC01918D828DFB
:1004A000981761F0A28DAE0FBF2FB11D5D968C9194
:1004B000928D9F5F9F73928F90E008958FEF9FEFD3
:1004C0000895FC01918D828D981731F0828DE80F8F
:1004D000F11D858D90E008958FEF9FEF0895FC0149
:1004E000918D228D892F90E0805C9F4F821B910916
:1004F0008F739927089586E493E00E946F0221E0AC
:10050000892B09F420E0822F089583EE93E00E9466
:100510006F0221E0892B09F420E0822F0895FC016D
:10052000A48DA80FB92FB11DA35ABF4F2C91848D54
:1005300090E001968F739927848FA689B7892C93B1
:10054000A089B1898C91837080648C93938D848D04
:10055000981306C00288F389E02D80818F7D808307
:100560000895EF92FF920F931F93CF93DF93EC01C7
:1005700081E0888F9B8D8C8D98131AC0E889F9894A
:10058000808185FF15C09FB7F894EE89FF8960834D
:10059000E889F98980818370806480839FBF81E0CE
:1005A00090E0DF91CF911F910F91FF90EF90089510
:1005B000F62E0B8D10E00F5F1F4F0F731127E02EEB
:1005C0008C8D8E110CC00FB607FCFACFE889F98923
:1005D000808185FFF5CFCE010E948F02F1CFEB8D98
:1005E000EC0FFD2FF11DE35AFF4FF0829FB7F894F7
:1005F0000B8FEA89FB8980818062CFCFCF93DF9315
:10060000EC01888D8823B9F0AA89BB89E889F9892A
:100610008C9185FD03C0808186FD0DC00FB607FC5F
:10062000F7CF8C9185FFF2CF808185FFEDCFCE0192
:100630000E948F02E9CFDF91CF91089580E090E092
:10064000892B29F00E94850281110E94000080E020
:1006500090E0892B49F080E090E0892B29F00E94FE
:10066000000081110E94000080E090E0892B29F0B9
:100670000E947B0281110E94000080E090E0892BA3
:1006800049F080E090E0892B29F00E940000811160
:100690000C94000008958150823108F05AC0E82F70
:1006A000F0E08827E95AFC4F8F4F0C94A937770365
:1006B0007B0369036F037303A9037E038403880329
:1006C0008E03920396039C03A003A903A403AA0329
:1006D000AE03809180008F77809380000895809191
:1006E00080008F7DF9CF80918000877FF5CF84B522
:1006F0008F7784BD089584B58F7DFBCF8091B00046
:100700008F778093B00008958091B0008F7DF9CFEE
:10071000809190008F778093900008958091900051
:100720008F7DF9CF80919000877FF5CF8091A000D9
:100730008F778093A00008958091A0008F7DF9CFDE
:100740008091A000877FF5CF809120018F778093E3
:1007500020010895809120018F7DF9CF80912001A3
:10076000877FF5CFCF93DF93282F30E0F901ED5944
:10077000FC4F8491F901E35EFC4FD491F901E952F9
:10078000FD4FC491CC23A1F081110E944B03EC2FAB
:10079000F0E0EE0FFF1FE354FD4FA591B491EC91F3
:1007A000ED2381E090E009F480E0DF91CF9108959E
:1007B00080E090E0FACF1F93CF93DF93282F30E0B3
:1007C000F901ED59FC4F8491F901E35EFC4FD4919E
:1007D000F901E952FD4FC491CC23A9F0162F8111E4
:1007E0000E944B03EC2FF0E0EE0FFF1FED55FD4F85
:1007F000A591B4918FB7F894EC91111108C0D095E0
:10080000DE23DC938FBFDF91CF911F910895DE2B04
:10081000F8CFCF93DF9390E0FC01E35EFC4F24918F
:1008200089529D4FFC0184918823C9F090E0880F84
:10083000991FFC01E757FD4FA591B491FC01ED55BF
:10084000FD4FC591D49161110DC09FB7F8948C9163
:10085000209582238C938881282328839FBFDF9152
:10086000CF910895623051F49FB7F8943C91822F54
:10087000809583238C93E8812E2BEFCF8FB7F8944C
:10088000EC912E2B2C938FBFEACF3FB7F894809139
:10089000190390911A03A0911B03B0911C0326B574
:1008A000A89B05C02F3F19F00196A11DB11D3FBFA8
:1008B000BA2FA92F982F8827BC01CD01620F711D77
:1008C000811D911D42E0660F771F881F991F4A9571
:1008D000D1F708958F929F92AF92BF92CF92DF92FD
:1008E000EF92FF920E9445044B015C0180EDC82EFF
:1008F00087E0D82EE12CF12C0E9445046819790973
:100900008A099B09683E734081059105A8F321E09F
:10091000C21AD108E108F10888EE880E83E0981E1B
:10092000A11CB11CC114D104E104F10429F7FF900A
:10093000EF90DF90CF90BF90AF909F908F900895F1
:100940002FB7F894609115037091160380911703E7
:10095000909118032FBF08950F931F93CF93DF93A8
:10096000EC010E94A004688779878A879B87CE0163
:100970000E944D0297FF15C00E94A00408851985AA
:100980002A853B85601B710B820B930B0C811D81AB
:100990002E813F81601771078207930740F38FEF25
:1009A0009FEFDF91CF911F910F91089560E0FC01BF
:1009B00084810C94DB03CF92DF92EF92FF920F932E
:1009C0001F93CF93DF93EC0169018A810E94DB03BF
:1009D00061E08C810E94DB0386010230110540F04A
:1009E000C601880F991F880F991F05970197F1F786
:1009F00060E08C810E94DB030230110550F0CC0CCA
:100A0000DD1CCC0CDD1C85E0C81AD108C60101979D
:100A1000F1F7DF91CF911F910F91FF90EF90DF9051
:100A2000CF900895CF93DF93EC01862F688379836D
:100A30005B834A833D832C8361E00E94090461E06B
:100A40008A810E94090461E08C810E94090460E0AF
:100A50008881DF91CF910C94DB03862F642F0C9457
:100A60000904FC0181850E94B20321E0892B09F46D
:100A700020E0822F0895CF93DF93EC0169871886D9
:100A80000E943105882319F08885836088870E9439
:100A9000A0046A837B838C839D83DF91CF9108952B
:100AA0000F931F93CF93809112058B7F8093120534
:100AB0008AE095E00E943105C82F80911205869545
:100AC0008170C817C9F00E94A00460930C05709350
:100AD0000D0580930E0590930F058091120592E00D
:100AE0008927809312058091120582FB882780F95F
:100AF000CF911F910F9108950E94A00400910C05C1
:100B000010910D0520910E0530910F05AB01BC0130
:100B1000401B510B620B730B8091100590911105D6
:100B2000B0E0A0E0481759076A077B07E0F2809120
:100B300012058170C817B9F20E94A00460930C05D9
:100B400070930D0580930E0590930F05809112050B
:100B500091E089278460809312050E94A00400918F
:100B60001405109115052091160530911705601B8D
:100B7000710B820B930B609318057093190580938A
:100B80001A0590931B050E94A004609314057093AE
:100B900015058093160590931705A5CF4F925F9288
:100BA0006F927F928F929F92AF92BF92CF92DF927D
:100BB000EF92FF924B015C013A010E9431356B01CB
:100BC0007C016A94672809F087C027E83FE649ED71
:100BD0005DEAC701B6010E949235A70196010E9405
:100BE00092356B017C01A8EAB1E6A50194010E944F
:100BF00053360E9431359B01AC01C701B6010E94FA
:100C00006D3628E43CE046E75CE40E946E366B01FA
:100C10007C0120E030E0A9010E94823720E030E032
:100C200040E05FE387FD31C0C701B6010E946E3628
:100C30000E944C376B017C01A0E9B1E0A501940151
:100C40000E9453369B01AC01C701B6010E94873751
:100C5000CA01B90196958795779567950E943135B8
:100C600020E030E040E05FE30E946E360E944C37A7
:100C7000FF90EF90DF90CF90BF90AF909F908F90BC
:100C80007F906F905F904F900895C701B6010E94CA
:100C90006D36CECF20E030E040E05FE3C701B60123
:100CA0000E946E360E944C376B017C01A0E9B1E0D6
:100CB000A50194010E9453369B01AC01C701B60106
:100CC0000E948737CA01B90122E0969587957795EA
:100CD00067952A95D1F7C2CF2CE137EC41E351E477
:100CE000C701B6010E949235A70196010E94923574
:100CF0002B013C012CE13FE144E357E4C701B6017D
:100D00000E9492359B01AC01C301B2010E946D3675
:100D10002AE138E746EA5CE40E946E366B017C010A
:100D200020E030E0A9010E94823787FFB3CF20E0A6
:100D300030E040E05FE3C701B6010E946D36B2CFFC
:100D4000CF93DF93FC01448155814115510599F002
:100D5000EC01808191814150510955834483BC014C
:100D60006F5F7F4F0E94DE39E881F9818C819D8120
:100D7000E80FF91F1082DF91CF910895FB010190D8
:100D80000020E9F73197AF01461B570B0C940A027C
:100D9000FC0180819181009711F00C94B63060E0E5
:100DA00070E0CB010895FC0180819181009711F0E2
:100DB0000C94BA3060E070E0CB010895FB014481EF
:100DC0005581FC01248135812417350778F0808115
:100DD0009181009759F0FB01608171816115710566
:100DE00029F00E94D03921E0892B09F020E0822FE0
:100DF0000895FC0124813581232B39F421E0FB0186
:100E00008081882349F020E007C0808191810E9481
:100E1000C03921E0892BB9F7822F08954F925F9254
:100E20006F927F92BF92CF92DF92EF92FF920F93D9
:100E30001F93CF93DF937C01EB016A0160E272E0C4
:100E40000E94F9068823B9F0BB24B394C130D105C0
:100E500009F4B12C04E010E026010D2C000C66080A
:100E60007708A30192016B2D88E994E00E94DB04CE
:100E700001501109B1F767EB72E0C7010E94F90652
:100E80008823B9F0BB24B394C130D10509F0B12C4B
:100E900004E010E026010D2C000C66087708A30181
:100EA00092016B2D82E994E00E94DB04015011094C
:100EB000B1F762E272E0C7010E94F906882399F057
:100EC00011E0219709F010E0C4E0D0E00D2C000CF7
:100ED000EE08FF08A7019601612F8CE894E00E94BC
:100EE000DB042197B9F7DF91CF911F910F91FF900C
:100EF000EF90DF90CF90BF907F906F905F904F907A
:100F000008950F931F93CF93DF93EC01888199810C
:100F1000009759F02A813B812617370730F081E08E
:100F2000DF91CF911F910F9108958B016F5F7F4FDC
:100F30000E94D638009759F0998388831B830A83CF
:100F40002C813D81232B59F7FC011082E8CF80E0F2
:100F5000E7CFEF92FF920F931F93CF93DF9361152B
:100F6000710541F480E0DF91CF911F910F91FF90C7
:100F7000EF90089541155105B1F07B01EC010C8112
:100F80001D81040F151FB8010E948107882351F3AA
:100F9000288139818C819D81B701820F931F0E9426
:100FA000C9391D830C8381E0DECFCF93DF93EC0141
:100FB00088819981009711F00E944D38198218821A
:100FC0001D821C821B821A82DF91CF910895CF93DC
:100FD000DF93EC01FB0101900020E9F73197AF01AD
:100FE000461B570B0E94A907811103C0CE010E9426
:100FF000D507CE01DF91CF910895CF93DF93EC0118
:10100000FB0144815581608171810E94A907811192
:1010100003C0CE010E94D507CE01DF91CF91089584
:10102000EF92FF920F931F93CF93DF93EC017B011D
:101030008A01BA010E94810781110BC0CE010E9472
:10104000D507CE01DF91CF911F910F91FF90EF90C7
:1010500008951D830C83B701888199810E94C93945
:10106000F0CFFB0101900020E9F73197AF01461B5B
:10107000570B0C941008CF93DF93EC0161157105A9
:1010800031F00E943108CE01DF91CF9108950E9486
:10109000D507F9CFEF92FF920F931F93CF93DF9372
:1010A000CDB7DEB7A1970FB6F894DEBF0FBECDBFA8
:1010B0007C01CB01BA01F7011182108213821282E6
:1010C000158214828E010F5F1F4F22E044E00E94C0
:1010D0009830BC01C7010E943B08A1960FB6F89456
:1010E000DEBF0FBECDBFDF91CF911F910F91FF905B
:1010F000EF9008950F931F93CF93DF93CDB7DEB793
:1011000062970FB6F894DEBF0FBECDBF8C01CB0146
:10111000F8011182108213821282158214824AE031
:10112000BE016F5F7F4F0E94E130BE016F5F7F4F56
:10113000C8010E94310862960FB6F894DEBF0FBE58
:10114000CDBFDF91CF911F910F910895FB01DC017D
:1011500011961C921E9213961C921E92129715962F
:101160001C921E9214978617970749F0608171812F
:101170006115710521F0448155810C941008089582
:10118000FC01118210821382128215821482FB01EB
:1011900001900020E9F73197AF01461B570B0C94E3
:1011A0001008AF92BF92CF92DF92EF92FF920F930F
:1011B0001F93CF93DF936C018B01DB011496ED90AD
:1011C000FC9082E0A82EB12CB2E0EB16F10420F4E2
:1011D000570192E0E92EF12C6FEA72E0C6010E94FD
:1011E000C008F801C481D581AC16BD06C8F4EC1660
:1011F000FD0608F4E701D801ED91FC911197EC0F81
:10120000FD1FF08010826D917C916A0D7B1DC601DF
:101210000E943B08F80180819181C80FD91FF88294
:10122000C601DF91CF911F910F91FF90EF90DF905A
:10123000CF90BF90AF900895AF92BF92CF92DF92C0
:10124000EF92FF920F931F93CF93DF938C01EB01EB
:10125000CC80DD80D60111972FEF3FEFB12CA12C70
:1012600090E080E070E060E0A817B90714F146173D
:10127000570714F1FC0131967F018C159D0548F448
:10128000E881F981309729F0E80FF91FE081EC320D
:1012900019F0A817B90759F46F5F7F4F5901FFEF95
:1012A000AF1ABF0A9701A817B90709F09C01C70137
:1012B000DBCF4617570794F569012A153B0510F057
:1012C000650159016FEA72E0C8010E94C008EC8014
:1012D000FD80CE14DF04B0F4AE14BF0408F4750131
:1012E00068817981FB01EE0DFF1DB08010826C0DCD
:1012F0007D1DC8010E943B0888819981E80EF91E76
:10130000F701B082C801DF91CF911F910F91FF903B
:10131000EF90DF90CF90BF90AF9008956FEA72E0AA
:10132000C8010E94C008EECFEF92FF920F931F9367
:10133000CF93DF931F921F92CDB7DEB78C017B0155
:101340006FEA72E00E94C008C7010E94AC0497FDDA
:101350000EC08B33910559F089831A8241E050E029
:10136000BE016F5F7F4FC8010E94A907EDCFC80182
:101370000F900F90DF91CF911F910F91FF90EF9001
:101380000895FC0180819181009711F00C944D38F3
:101390000895FF920F931F93CF93DF93CDB7DEB7DE
:1013A0002C970FB6F894DEBF0FBECDBF8C0183EE35
:1013B00093E00E946F02892B09F443C063EE73E04F
:1013C000CE0107960E94940983EE93E00E94FE02EC
:1013D00064E272E0CE0101960E94C008BE016F5F18
:1013E0007F4FCE0107960E94DE06F82ECE010196B1
:1013F0000E94C109FF2009F1CE0107960E94A006B4
:1014000066E272E0CE0101960E94C008BE016F5FE5
:101410007F4FCE0107960E94DE06F82ECE01019680
:101420000E94C109FF2019F081E0F80180836FEA72
:1014300072E0CE0107960E943108CE0107960E9405
:10144000C1092C960FB6F894DEBF0FBECDBFDF9159
:10145000CF911F910F91FF9008951F93CF93DF932A
:10146000CDB7DEB72C970FB6F894DEBF0FBECDBF59
:1014700083EE93E00E946F02892B09F443C063EE70
:1014800073E0CE0107960E94940983EE93E00E94D8
:10149000FE0264E272E0CE0101960E94C008BE0125
:1014A0006F5F7F4FCE0107960E94DE06182FCE0198
:1014B00001960E94C109112309F1CE0107960E94ED
:1014C000A00669E272E0CE0101960E94C008BE014A
:1014D0006F5F7F4FCE0107960E94DE06182FCE0168
:1014E00001960E94C109112319F081E080931D0328
:1014F0006FEA72E0CE0107960E943108CE0107968E
:101500000E94C1092C960FB6F894DEBF0FBECDBF66
:10151000DF91CF911F910895CF92DF92EF92FF92CA
:10152000CF93DF93CDB7DEB768970FB6F894DEBFE1
:101530000FBECDBFC0902E03D0902F03E09030039C
:10154000F0903103209136033091370340913803F6
:101550005091390360914203709143038091440399
:10156000909145030E942C35811123C020913203B4
:1015700030913303409134035091350360913E0321
:1015800070913F0380914003909141030E942C355C
:1015900081110FC0A701960160913A0370913B033E
:1015A00080913C0390913D030E942C35882309F4DF
:1015B00086C0B701A601CE0101960E944A0840915B
:1015C0003203509133036091340370913503CE019F
:1015D00007960E944A084091360350913703609164
:1015E000380370913903CE010D960E944A086CE2CF
:1015F00072E0CE0143960E94C008BE01635F7F4F38
:10160000CE0143960E94FD076DEE72E00E94E7074F
:10161000BE01695F7F4F0E94FD076DEE72E00E9480
:10162000E707BE016F5F7F4F0E94FD0768E672E02B
:101630000E94E707BC0183EE93E00E943702CE01CF
:1016400043960E94C109CE010D960E94C109CE01A8
:1016500007960E94C109CE0101960E94C10980919E
:10166000360390913703A0913803B09139038093EA
:10167000420390934303A0934403B09345038091A6
:10168000320390913303A0913403B09135038093DA
:101690003E0390933F03A0934003B0934103809196
:1016A0002E0390912F03A0913003B09131038093CA
:1016B0003A0390933B03A0933C03B0933D03689699
:1016C0000FB6F894DEBF0FBECDBFDF91CF91FF9074
:1016D000EF90DF90CF9008950F931F930E94A00486
:1016E00000912A0310912B0320912C0330912D039C
:1016F000601B710B820B930B613671408105910564
:1017000070F00E94A00460932A0370932B038093CF
:101710002C0390932D031F910F910C948C0A1F9111
:101720000F9108952F923F924F925F926F927F9206
:101730008F929F92AF92BF92CF92DF92EF92FF92E1
:101740000F931F93CF93DF93CDB7DEB7CB54D1095F
:101750000FB6F894DEBF0FBECDBF6D877E871C012C
:101760002F87388B498B5A8BEB8AFC8A0D8B1E8B0B
:10177000ABA2BCA2CDA2DEA29B01AC01C601B50109
:101780000E946D366F8B788F898F9A8F2F8538895D
:1017900049895A89A5966CAD7DAD8EAD9FADA59753
:1017A0000E946D362B013C019701A801A9966CADF2
:1017B0007DAD8EAD9FADA9970E946D366B8F7C8FEE
:1017C0008D8F9E8F20E030E0A9016F89788D898D03
:1017D0009A8D0E94823718160CF46AC18F89988DF1
:1017E000A98DBA8DB0588F8F98A3A9A3BAA320E072
:1017F00030E0A901C301B2010E94823753014201C6
:10180000181624F0B7FAB094B7F8B09420E030E09E
:10181000A9016B8D7C8D8D8D9E8D0E948237CB8C26
:10182000DC8CED8CFE8C181624F0F7FAF094F7F8A7
:10183000F0942D853E85A1016BA17CA18DA19EA177
:101840000E94823718160CF438C101E010E02D8593
:101850003E85A1016BA17CA18DA19EA10E942C358A
:10186000811102C010E000E0AA27BB27A01BB10B2A
:10187000BFA7AEA72F85388949895A89A5966CAD2F
:101880007DAD8EAD9FADA5970E94823718160CF4E2
:1018900019C101E010E02F85388949895A89A59638
:1018A0006CAD7DAD8EAD9FADA5970E942C3581119D
:1018B00002C010E000E0AA27BB27A01BB10BB9AB08
:1018C000A8AB2B893C894D895E89A9966CAD7DAD0D
:1018D0008EAD9FADA9970E94823718160CF4F7C001
:1018E00001E010E02B893C894D895E89A9966CAD99
:1018F0007DAD8EAD9FADA9970E942C35811102C0A0
:1019000010E000E0AA27BB27A01BB10BBBABAAAB22
:10191000A50194016F8D78A189A19AA10E948237B7
:10192000181624F48F8C98A0A9A0BAA0A501940140
:10193000C701B6010E942C3587FF02C07501640102
:10194000A70196016F89788D898D9A8D0E94DA366C
:101950006CAB7DAB8EAB9FABA7019601C301B2010F
:101960000E94DA3668AF79AF8AAF9BAFA7019601C4
:101970006B8D7C8D8D8D9E8D0E94DA366CAF7DAF28
:101980008EAF9FAF9B899BA7AC89ACA7BD89BDA734
:10199000DE888F8588A7988999A7A989AAA7CA8868
:1019A000BD85BF8B8E858B8F2F8E3FA2AB964EACA5
:1019B0005FACAB97052C000C660877088EA59FA539
:1019C000092E000CAA0BBB0B24968CAF9DAFAEAFBB
:1019D000BFAF249788A999A9092E000CAA0BBB0BAD
:1019E00028968CAF9DAFAEAFBFAF28978AA99BA9B1
:1019F000092E000CAA0BBB0B2C968CAF9DAFAEAF83
:101A0000BFAF2C972F893B8D4F8D5FA16BA17CA120
:101A10008DA19EA10E942C3581111CC028A539A53D
:101A20004AA55C2DA5966CAD7DAD8EAD9FADA597FD
:101A30000E942C3581110EC02BA53CA54DA55D2D16
:101A4000A9966CAD7DAD8EAD9FADA9970E942C354A
:101A50008823A1F00E94500588E20E94B203892BDE
:101A6000D9F180911D03811137C060E372E083EEEC
:101A700093E00E94BE0681E080931D03C55BDF4FAB
:101A80000FB6F894DEBF0FBECDBFDF91CF911F918F
:101A90000F91FF90EF90DF90CF90BF90AF909F900D
:101AA0008F907F906F905F904F903F902F90089510
:101AB0008F89988DA98DBA8D96CE81E090E09FA7F1
:101AC0008EA7D8CE81E090E099AB88ABFACE81E0CA
:101AD00090E09BAB8AAB1CCF83EE93E00E946F0239
:101AE000892B09F472C063EE73E0CE0107960E9461
:101AF000940983EE93E00E94FE0264E272E0CE015C
:101B000001960E94C008BE016F5F7F4FCE0107960D
:101B10000E94DE06182FCE0101960E94C1091123F2
:101B200009F44FC0CE0107960E94A00669E272E058
:101B3000CE0101960E94C008BE016F5F7F4FCE01AB
:101B400007960E94DE06182FCE0101960E94C10959
:101B5000112319F091E09093130360E472E0CE0139
:101B600001960E94C008BE016F5F7F4FCE010796AD
:101B70000E94DE06182FCE0101960E94C109112392
:101B800019F0A1E0A093120363E472E0CE01019684
:101B90000E94C008BE016F5F7F4FCE0107960E9472
:101BA000DE06182FCE0101960E94C109112319F0FB
:101BB000B1E0B09311036FEA72E0CE0107960E9484
:101BC0003108CE0107960E94C1090E94500588E2A3
:101BD0000E94B203892B09F090C1809113038111F7
:101BE0008CC180911003882329F080911D038823E4
:101BF00009F483C180911203811188C1809111037E
:101C0000882359F080910F03882329F080910E03D7
:101C1000811110920E031092110380910E03811115
:101C2000F1CE2F893B8D4F8D5FA16BA17CA18DA142
:101C30009EA10E942C35882309F468C041E050E041
:101C4000C301B2010E94CE054B012CA93DA94EA9AA
:101C50005FA96D857E85C1010E946E366D877E8786
:101C60001C0120E030E0A9010E94823720E030E032
:101C700040E05FE36D857E8587FD56C1C1010E940E
:101C80006E360E944C370E9433357B018C012F89C0
:101C90003B8D4F8D5FA10E942C358823B9F160E206
:101CA00072E0CE0101960E94C008A4016EA57FA536
:101CB000CE0101960E940E07CE0101960E94C10935
:101CC00024966CAD7DAD8EAD9FAD24970E943335CB
:101CD0002AE037ED43E25CE30E9492359B01AC01C0
:101CE00060913603709137038091380390913903E6
:101CF0000E946E36609336037093370380933803E7
:101D000090933903EF8AFB8E0F8F1FA328A539A567
:101D10004AA55C2DA5966CAD7DAD8EAD9FADA5970A
:101D20000E942C35882309F46BC041E050E0C301C8
:101D3000B2010E94CE054B0128AD39AD4AAD5BAD75
:101D40006F85788989899A890E946E366F87788B2A
:101D5000898B9A8B20E030E0A9010E94823720E035
:101D600030E040E05FE36F85788987FDE1C08989D5
:101D70009A890E946E360E944C370E9433357B014F
:101D80008C0128A539A54AA55C2D0E942C358823F5
:101D9000B9F167EB72E0CE0101960E94C008A40180
:101DA00068A979A9CE0101960E940E07CE0101967D
:101DB0000E94C10928966CAD7DAD8EAD9FAD289770
:101DC0000E9433352AE037ED43E25CE30E9492350E
:101DD0009B01AC0160913203709133038091340315
:101DE000909135030E946E366093320370933303F3
:101DF0008093340390933503E8A6F9A60AA7C12E71
:101E00002BA53CA54DA55D2DA9966CAD7DAD8EADE8
:101E10009FADA9970E942C35882309F46BC041E03F
:101E200050E0C301B2010E94CE054B012CAD3DAD87
:101E30004EAD5FAD6B897C898D899E890E946E361F
:101E40006B8B7C8B8D8B9E8B20E030E0A9010E94F8
:101E5000823720E030E040E05FE36B897C8987FDDA
:101E60006CC08D899E890E946E360E944C370E94FC
:101E700033357B018C012BA53CA54DA55D2D0E9422
:101E80002C358823B9F162E272E0CE0101960E94FE
:101E9000C008A4016AA97BA9CE0101960E940E0781
:101EA000CE0101960E94C1092C966CAD7DAD8EAD20
:101EB0009FAD2C970E9433352AE037ED43E25CE377
:101EC0000E9492359B01AC0160912E0370912F030B
:101ED00080913003909131030E946E3660932E03FF
:101EE00070932F038093300390933103EBA6FCA6ED
:101EF0000DA7D12E0E946C0B85CD66E472E083EEB7
:101F000093E00E94BE0610921303B5CD80910F039B
:101F1000882339F080910E03811103C081E0809302
:101F20000E03109212036ACEC1010E946D36A9CE33
:101F300089899A890E946D361ECF8D899E890E945B
:101F40006D3693CFCF92DF92EF92FF92CF93DF93D4
:101F5000CDB7DEB7AA970FB6F894DEBF0FBECDBFE0
:101F600086E493E00E946F02892B09F470C066E456
:101F700073E0CE0183960E94940986E493E00E9468
:101F8000FE021A8219821C821B821E821D8286E238
:101F900089A71AA6BE01675D7F4FCE0101960E94F8
:101FA0003108BE016F5F7F4FCE0183960E94DE062F
:101FB000F82ECE0101960E94C109FF20F1F1CE0159
:101FC00083960E94A0066BE472E0CE0101960E9407
:101FD000C008BE016F5F7F4FCE0183960E94DE0670
:101FE000F82ECE0101960E94C109FF2031F1BE01F9
:101FF0006D5D7F4FCE0101960E94D108CE01019602
:102000000E94D3066B017C01CE0101960E94C1099A
:102010008091220390912303A0912403B091250382
:10202000C816D906EA06FB0641F0C0921E03D092FC
:102030001F03E0922003F09221036FEA72E0CE01C9
:1020400083960E943108CE0183960E94C1090E94A6
:10205000A004C0902603D0902703E0902803F090BE
:1020600029036C197D098E099F09613F7140810523
:10207000910508F461C00E94A00460932603709348
:102080002703809328039093290360911E03709186
:102090001F038091200390912103C0902203D090D0
:1020A0002303E0902403F09025036C157D058E0535
:1020B0009F0509F441C01CA21BA21EA21DA218A6C6
:1020C0001FA22AE0AE014F5F5F4F0E94EC30BE01BD
:1020D0006F5F7F4FCE0183960E9431086EE472E0FD
:1020E000CE0101960E94C008BE016D5D7F4FCE01FA
:1020F00001960E94FD0768E672E00E94E707BC01B6
:1021000083EE93E00E943702CE0101960E94C1093E
:10211000CE0183960E94C10980911E0390911F03F6
:10212000A0912003B0912103809322039093230375
:10213000A0932403B0932503AA960FB6F894DEBFAC
:102140000FBECDBFDF91CF91FF90EF90DF90CF908A
:1021500008954F925F926F927F928F929F92AF926B
:10216000BF92CF92DF92EF92FF920F931F93CF9384
:10217000DF93CDB7DEB7E8970FB6F894DEBF0FBE9A
:10218000CDBF80910F0381110CC060E086E20E94F8
:10219000DB0360E082E20E94DB0361E084E20E94F4
:1021A000DB0388E20E94B203892B09F04AC083EE68
:1021B00093E00E946F02892B09F443C063EE73E041
:1021C000CE0107960E94940983EE93E00E94FE02DE
:1021D0001A8219821C821B821E821D8280E48D87D6
:1021E0001E86BE01635F7F4FCE0101960E943108BB
:1021F000BE016F5F7F4FCE0107960E94DE06182F4B
:10220000CE0101960E94C109112309F487C1CE01B4
:1022100007960E94A0066F8178856115710509F403
:1022200078C14B855C8586E894E00E9410086FEACF
:1022300072E0CE0107960E943108CE0107960E94F7
:10224000C10988E20E94B203892B49F080911D03E5
:10225000811105C081E080931D0310920D0369E296
:1022600072E0CE0101960E94C008BE016F5F7F4FF1
:1022700086E894E00E94DE0610E0882321F01091A9
:102280001D0381E01827CE0101960E94C109112388
:1022900029F081E080931D0310920D0380911D03AE
:1022A000882359F161E086E20E94DB0360E082E26C
:1022B0000E94DB0360E084E20E94DB0380910C0358
:1022C000811113C080910D0381110FC062E572E08E
:1022D00086E493E00E94BE0666E472E083EE93E03B
:1022E0000E94BE0681E080930D0310920C031092B1
:1022F0000B0310920A0310920F0367E572E0CE0100
:1023000001960E94C008BE016F5F7F4F86E894E08F
:102310000E94DE06182FCE0101960E94C1091123EA
:1023200021F180911D038823D1F088E20E94B2033D
:10233000892BA9F460E086E20E94DB0360E082E280
:102340000E94DB0361E084E20E94DB0381E0809372
:102350000A0310921D0310920F0310920B036FEAF1
:1023600072E086E894E00E9431086AE572E0CE01EE
:1023700007960E94C008BE01695F7F4F86E894E01F
:102380000E94DE0611E0811115C06DE572E0CE01FC
:1023900001960E94C008BE016F5F7F4F86E894E0FF
:1023A0000E94DE0611E0811101C010E0CE0101960D
:1023B0000E94C109CE0107960E94C109112371F143
:1023C00080911D03811124C061E082E20E94DB0341
:1023D00060E086E20E94DB0360E084E20E94DB03AF
:1023E00011E010930B036DE572E0CE0101960E949F
:1023F000C008BE016F5F7F4F86E894E00E94DE0652
:10240000082FCE0101960E94C10901111093090302
:102410006FEA72E086E894E00E94310880910B0335
:10242000811105C080910A03882309F4D8C211E004
:1024300080910A03882329F100910803011104C047
:10244000809107038823E9F020E030E0A901609142
:102450002E0370912F0380913003909131030E94DD
:102460002C3587FF0EC0011104C08091070388231B
:1024700031F060E672E086E493E00E94BE060E94BE
:102480006A0486E10E94B203892B09F46BC08AE1D9
:102490000E94B203892B09F465C080E20E94B20356
:1024A000892B09F45FC00E942D0A80E20E94B203CA
:1024B000892BD9F188E20E94B203892BB1F5809172
:1024C0001D03811132C021E330E040E050E061E0C3
:1024D0008CE894E00E94DB042AE037ED43E25BE302
:1024E00060912E0370912F038091300390913103FE
:1024F0000E946D3660932E0370932F0380933003F8
:1025000090933103809109038111BBCF0E946C0B22
:10251000B8CF86E894E00E94D50789CE6FEA72E0D2
:1025200086E894E00E94310882CE88E20E94B203DD
:10253000892B21F480911D03882381F010931D03C2
:1025400010920D0362E572E086E493E00E94BE06FD
:1025500066E472E083EE93E00E94BE068CE894E0AD
:102560000E94D60480E20E94B20320910A03892BC4
:1025700009F0DAC1222309F180910803811104C016
:10258000809107038823C9F020E030E0A901609121
:102590002E0370912F0380913003909131030E949C
:1025A0008237181654F460E672E086E493E00E94E5
:1025B000BE0610920803109207038CE894E00E9474
:1025C000D60486E10E94B203892B09F49CC08AE1FB
:1025D0000E94B203892B09F496C080E20E94B203E4
:1025E000892B09F025CF0E942D0A86E10E94B203B3
:1025F000892B09F455C08AE10E94B203892B09F4A2
:102600004FC088E20E94B203892B09F049C0809133
:102610001D03811145C020E230E040E050E061E060
:1026200088E994E00E94DB042AE037ED43E25BE3B3
:10263000609136037091370380913803909139038C
:102640000E946D366093360370933703809338038E
:102650009093390320E230E040E050E060E082E90E
:1026600094E00E94DB042AE037ED43E25BE36091F3
:1026700032037091330380913403909135030E94AB
:102680006D366093320370933303809334039093D9
:10269000350380910903811194CF0E946C0B91CF77
:1026A00088E20E94B203892B21F480911D038823C4
:1026B000C1F010931D0310920D0362E572E086E4F1
:1026C00093E00E94BE0666E472E083EE93E00E940F
:1026D000BE0688E994E00E94D60482E994E00E9454
:1026E000D60486E10E94B203892B21F488E994E0A4
:1026F0000E94D6048AE10E94B203892B21F482E968
:1027000094E00E94D60486E10E94B203892B09F46A
:1027100059C080E20E94B203892B09F089CE0E9441
:102720002D0A86E10E94B203892B79F188E20E948A
:10273000B203892B51F580911D03811126C021E33D
:1027400030E040E050E061E088E994E00E94DB0482
:102750002AE037ED43E25BE3609136037091370383
:1027600080913803909139030E946D36609336034F
:102770007093370380933803909339038091090352
:102780008111C1CF0E946C0BBECF88E20E94B203C0
:10279000892B21F480911D03882381F010931D0360
:1027A00010920D0362E572E086E493E00E94BE069B
:1027B00066E472E083EE93E00E94BE0688E994E04E
:1027C0000E94D6048AE10E94B203892B09F458C002
:1027D00080E20E94B203892B09F02ACE8AE10E948E
:1027E000B203892B79F188E20E94B203892B51F55B
:1027F00080911D03811126C021E330E040E050E0CC
:1028000060E082E994E00E94DB042AE037ED43E2D5
:102810005BE36091320370913303809134039091B4
:1028200035030E946D3660933203709333038093B7
:10283000340390933503809109038111C3CF0E9423
:102840006C0BC0CF88E20E94B203892B21F48091E7
:102850001D03882389F081E080931D0310920D03EE
:1028600062E572E086E493E00E94BE0666E472E0F0
:1028700083EE93E00E94BE0682E994E00E94D604B3
:1028800086E10E94B203892B09F04EC08AE10E94C2
:10289000B203892B09F048C080E20E94B203892B61
:1028A00009F042C060E082E20E94DB0360E086E261
:1028B0000E94DB0361E084E20E94DB038091060357
:1028C000811118C01092360310923703109238030A
:1028D0001092390310923203109233031092340392
:1028E0001092350310922E0310922F031092300392
:1028F0001092310310920B0310920A0310920F03EF
:1029000010921D031092050310920403109203030A
:102910001092020310920103109200036FEA72E01A
:1029200086E894E00E94310880910A03882341F0F0
:1029300010921003109212031092110310920E03C2
:1029400080910903882309F44AC065E672E083EEAA
:1029500093E00E94BE061092360310923703109245
:1029600038031092390310923203109233031092FD
:1029700034031092350310922E0310922F031092FD
:1029800030031092310310921E0310921F03109215
:1029900020031092210310924203109243031092DD
:1029A00044031092450310923E0310923F0310928D
:1029B00040031092410310923A0310923B0310928D
:1029C0003C0310923D0310922203109223031092B5
:1029D00024031092250310920603109209036AE65D
:1029E00072E0CE0101960E94C008BE016F5F7F4F6A
:1029F00086E894E00E94DE06182FCE0101960E9420
:102A0000C109112309F44BC088E10E94B203892B4C
:102A100009F43FC080911D0381113BC080910B03DD
:102A2000811137C080910A03811133C080910F0357
:102A300081112FC060E084E20E94DB031092040346
:102A400010920303109202031092010310920003EC
:102A500066E874E0CE0101960E94D108CE0101968D
:102A60000E94D3066B017C01CE0101960E94C10930
:102A700041E050E0C701B6010E94CE056093FC0220
:102A80007093FD028093FE029093FF0281E0809399
:102A900005036FEA72E086E894E00E9431088091B5
:102AA00005038823E9F188E10E94B203892BC1F173
:102AB00080911D03811134C080910B03811130C0BE
:102AC00080910A0381112CC080910F03811128C0CD
:102AD0001982CE0101960E94C9098981882311F4C7
:102AE0000C94E12188E20E94B203892B89F081E0F5
:102AF00080931D0310920D0362E572E086E493E07B
:102B00000E94BE0666E472E083EE93E00E94BE0679
:102B100088E994E00E94D604109205030E948C0A72
:102B20006DE672E0CE0101960E94C008BE016F5FA3
:102B30007F4F86E894E00E94DE06182FCE010196B2
:102B40000E94C109112309F44BC086E10E94B2031F
:102B5000892B09F43FC080911D0381113BC08091F6
:102B60000B03811137C080910A03811133C080911A
:102B70000F0381112FC060E084E20E94DB031092FA
:102B800005031092030310920203109201031092A6
:102B9000000366E874E0CE0101960E94D108CE01E0
:102BA00001960E94D3066B017C01CE0101960E9422
:102BB000C10941E050E0C701B6010E94CE05609313
:102BC000FC027093FD028093FE029093FF0281E06D
:102BD000809304036FEA72E086E894E00E94310873
:102BE000809104038823E9F186E10E94B203892BD6
:102BF000C1F180911D03811134C080910B038111BB
:102C000030C080910A0381112CC080910F03811183
:102C100028C01982CE0101960E94C90989818823A2
:102C200011F40C94252288E20E94B203892B89F0CA
:102C300081E080931D0310920D0362E572E086E44B
:102C400093E00E94BE0666E472E083EE93E00E9489
:102C5000BE0688E994E00E94D604109204030E9404
:102C60008C0A60E772E0CE0101960E94C008BE01A6
:102C70006F5F7F4F86E894E00E94DE06182FCE013A
:102C800001960E94C109112309F44BC08CE10E94F6
:102C9000B203892B09F43FC080911D0381113BC011
:102CA00080910B03811137C080910A03811133C0D9
:102CB00080910F0381112FC060E084E20E94DB034A
:102CC0001092040310920503109202031092010364
:102CD0001092000366E874E0CE0101960E94D108CC
:102CE000CE0101960E94D3066B017C01CE010196B4
:102CF0000E94C10941E050E0C701B6010E94CE0523
:102D00006093FC027093FD028093FE029093FF0299
:102D100081E0809303036FEA72E086E894E00E940A
:102D20003108809103038823E9F18CE10E94B2030A
:102D3000892BC1F180911D03811134C080910B0357
:102D4000811130C080910A0381112CC080910F0342
:102D5000811128C01982CE0101960E94C90989817A
:102D6000882311F40C94692288E20E94B203892B13
:102D700089F081E080931D0310920D0362E572E0FB
:102D800086E493E00E94BE0666E472E083EE93E080
:102D90000E94BE0682E994E00E94D60410920303CA
:102DA0000E948C0A63E772E0CE0101960E94C0087F
:102DB000BE016F5F7F4F86E894E00E94DE06182F09
:102DC000CE0101960E94C109112309F44BC08AE18A
:102DD0000E94B203892B09F43FC080911D03811129
:102DE0003BC080910B03811137C080910A03811190
:102DF00033C080910F0381112FC060E084E20E94F4
:102E0000DB03109205031092040310920303109247
:102E100001031092000366E874E0CE0101960E945F
:102E2000D108CE0101960E94D3066B017C01CE0130
:102E300001960E94C10941E050E0C701B6010E941D
:102E4000CE056093FC027093FD028093FE02909386
:102E5000FF0281E0809302036FEA72E086E894E06B
:102E60000E943108809102038823E9F18AE10E94DF
:102E7000B203892BC1F180911D03811134C080916F
:102E80000B03811130C080910A0381112CC0809105
:102E90000F03811128C01982CE0101960E94C90931
:102EA0008981882311F40C94AD2288E20E94B20338
:102EB000892B89F081E080931D0310920D0362E558
:102EC00072E086E493E00E94BE0666E472E083EE60
:102ED00093E00E94BE0682E994E00E94D60410921C
:102EE00002030E948C0A66E772E0CE0101960E94FE
:102EF000C008BE016F5F7F4F86E894E00E94DE0647
:102F0000182FCE0101960E94C109112309F44BC06C
:102F10008EE10E94B203892B09F43FC080911D030A
:102F200081113BC080910B03811137C080910A034E
:102F3000811133C080910F0381112FC060E084E2C2
:102F40000E94DB0310920503109204031092030306
:102F5000109202031092000366E874E0CE0101961D
:102F60000E94D108CE0101960E94D3066B017C011C
:102F7000CE0101960E94C10941E050E0C701B601AF
:102F80000E94CE056093FC027093FD028093FE02C6
:102F90009093FF0281E0809301036FEA72E086E87C
:102FA00094E00E943108809101038823E9F18EE1C9
:102FB0000E94B203892BC1F180911D03811134C09D
:102FC00080910B03811130C080910A0381112CC0C4
:102FD00080910F03811128C01982CE0101960E94B1
:102FE000C9098981882311F40C94F12288E20E9496
:102FF000B203892B89F081E080931D0310920D03A9
:1030000062E572E086E493E00E94BE0666E472E048
:1030100083EE93E00E94BE068CE894E00E94D60402
:10302000109201030E948C0A69E772E0CE010196BA
:103030000E94C008BE016F5F7F4F86E894E00E9447
:10304000DE06182FCE0101960E94C109112309F452
:103050004BC080E20E94B203892B09F43FC08091EB
:103060001D0381113BC080910B03811137C08091FA
:103070000A03811133C080910F0381112FC060E0DA
:1030800084E20E94DB031092050310920403109265
:103090000303109202031092010366E874E0CE016C
:1030A00001960E94D108CE0101960E94D3066B01C1
:1030B0007C01CE0101960E94C10941E050E0C701A8
:1030C000B6010E94CE056093FC027093FD028093CE
:1030D000FE029093FF0281E0809300036FEA72E0AA
:1030E00086E894E00E943108809100038823E9F18A
:1030F00080E20E94B203892BC1F180911D038111EE
:1031000034C080910B03811130C080910A0381117A
:103110002CC080910F03811128C01982CE01019625
:103120000E94C9098981882311F40C94352388E20F
:103130000E94B203892B89F081E080931D031092D5
:103140000D0362E572E086E493E00E94BE0666E449
:1031500072E083EE93E00E94BE068CE894E00E9449
:10316000D604109200030E948C0A6CE772E0CE0134
:1031700001960E94C008BE016F5F7F4F86E894E011
:103180000E94DE06182FCE0101960E94C10911236C
:1031900009F43FC080911D03811135C080910B035C
:1031A000811131C080910A0381112DC080910F03DC
:1031B000811129C066E874E0CE0107960E94D1080B
:1031C0006FE772E0CE0101960E94C008BE01695F00
:1031D0007F4FCE0101960E94FD0768E672E00E94D3
:1031E000E707BC0186E493E00E943702CE01019616
:1031F0000E94C10981E0809308038093FB02CE0105
:1032000007960E94C1096FEA72E086E894E00E9486
:10321000310863E872E0CE0101960E94C008BE0149
:103220006F5F7F4F86E894E00E94DE06182FCE0184
:1032300001960E94C109112309F43FC080911D032A
:10324000811135C080910B03811131C080910A0337
:1032500081112DC080910F03811129C066E874E0AF
:10326000CE0107960E94D10866E872E0CE01019671
:103270000E94C008BE01695F7F4FCE0101960E9487
:10328000FD0768E672E00E94E707BC0186E493E070
:103290000E943702CE0101960E94C10981E080930D
:1032A00007038093FB02CE0107960E94C1096FEAD3
:1032B00072E086E894E00E9431086AE872E0CE018C
:1032C00001960E94C008BE016F5F7F4F86E894E0C0
:1032D0000E94DE06182FCE0101960E94C10911231B
:1032E00009F446C080911D0381113CC080910B03FD
:1032F000811138C080910A03811134C080910F037D
:10330000811130C066E874E0CE0107960E94D108B2
:10331000BE01695F7F4F83EE93E00E9437026DE844
:1033200072E0CE0101960E94C008BE01695F7F4F26
:10333000CE0101960E94FD0768E672E00E94E70751
:10334000BC0186E493E00E943702CE0101960E9400
:10335000C10981E0809308038093FB02CE010796A8
:103360000E94C1096FEA72E086E894E00E94310889
:1033700061E972E0CE0101960E94C008BE016F5F54
:103380007F4F86E894E00E94DE06182FCE0101965A
:103390000E94C109112309F43FC080911D038111CE
:1033A00035C080910B03811131C080910A038111D6
:1033B0002DC080910F03811129C066E874E0CE0111
:1033C00007960E94D10864E972E0CE0101960E943E
:1033D000C008BE01695F7F4FCE0101960E94FD07C4
:1033E00068E672E00E94E707BC0186E493E00E9471
:1033F0003702CE0101960E94C10981E08093070344
:103400008093FB02CE0107960E94C1096FEA72E029
:1034100086E894E00E94310868E972E0CE010196E6
:103420000E94C008BE016F5F7F4F86E894E00E9453
:10343000DE06182FCE0101960E94C109112311F159
:1034400080911D03811118C080910B03811114C05C
:1034500080910A03811110C080910F0381110CC06B
:1034600060E672E086E493E00E94BE0610920803D4
:10347000109207031092FB026FEA72E086E894E074
:103480000E9431088091FB0281110E94A20F80915D
:103490001D03811109C680910B03811105C680911E
:1034A0000A03811101C680910F038111FDC56BE9EB
:1034B00072E0CE0101960E94C008BE016F5F7F4F8F
:1034C00086E894E00E94DE06182FCE0101960E9445
:1034D000C109112309F481C081E080930603C090E3
:1034E0003603D0903703E0903803F0903903809092
:1034F000320390903303A0903403B0903503409191
:103500002E0350912F03609130037091310310927C
:103510003603109237031092380310923903109239
:103520003203109233031092340310923503109239
:103530002E0310922F031092300310923103CE010C
:1035400043960E944A08B501A401CE010D960E943F
:103550004A08B701A601CE0107960E944A086EE903
:1035600072E0CE0101960E94C008BE01695F7F4FE4
:10357000CE0101960E94FD076DEE72E00E94E70702
:10358000BE01635F7F4F0E94FD076DEE72E00E94F7
:10359000E707BE016D5E7F4F0E94FD0768E672E09F
:1035A0000E94E707BC0183EE93E00E943702CE0140
:1035B00001960E94C109CE0107960E94C109CE0161
:1035C0000D960E94C109CE0143960E94C1096FEA7F
:1035D00072E086E894E00E94310862EA72E0CE016F
:1035E00001960E94C008BE016F5F7F4F86E894E09D
:1035F0000E94DE06182FCE0101960E94C1091123F8
:1036000009F4C8C080910603882309F4BDC060E0B6
:1036100084E20E94DB0361E082E20E94DB0320E09F
:1036200030E048EC52E460913603709137038091AA
:103630003803909139030E9492356B017C0120E0A0
:1036400030E0A9010E94823720E030E040E05FE3F3
:1036500087FF02C00C947923C701B6010E946E3621
:103660000E944C376B017C0120E030E048EC52E4D2
:10367000609132037091330380913403909135034C
:103680000E9492354B015C0120E030E0A9010E94CC
:10369000823720E030E040E05FE387FF02C00C9417
:1036A0007F23C501B4010E946E360E944C374B0146
:1036B0005C0120E030E048EC52E460912E03709110
:1036C0002F0380913003909131030E9492352B019A
:1036D0003C0120E030E0A9010E94823720E030E088
:1036E00040E05FE387FF02C00C948523C301B20171
:1036F0000E946E360E944C370E94333569A77AA724
:103700008BA79CA7C501B4010E9433352B013C0156
:10371000C701B6010E94333523E02F9328EE2F9383
:103720001F921F921F921F921F921F921F921F9211
:10373000A12CB12C6501E9A4FAA40BA51CA5A30139
:1037400092010E94920BA0923603B0923703C0926E
:103750003803D0923903A0923203B0923303C0925F
:103760003403D0923503A0922E03B0922F03C0925F
:103770003003D09231030E94A20F0E948C0A0FB630
:10378000F894DEBF0FBECDBF6FEA72E086E894E02A
:103790000E94310865EA72E0CE0101960E94C008DD
:1037A000BE016F5F7F4F86E894E00E94DE06182F0F
:1037B000CE0101960E94C109112309F45CC260E0A8
:1037C00084E20E94DB0366E874E0CE0101960E9469
:1037D000D10820E030E048EC52E46091360370916B
:1037E000370380913803909139030E9492356B0121
:1037F0007C0120E030E0A9010E94823720E030E027
:1038000040E05FE387FD87C7C701B6010E946E36BF
:103810000E944C3769A77AA78BA79CA720E030E0CD
:1038200048EC52E460913203709133038091340389
:10383000909135030E9492356B017C0120E030E0CD
:10384000A9010E94823720E030E040E05FE387FD7D
:1038500067C7C701B6010E946E360E944C376DA340
:103860007EA38FA398A720E030E048EC52E460915B
:103870002E0370912F0380913003909131030E94A9
:1038800092354B015C0120E030E0A9010E948237B3
:1038900020E030E040E05FE387FD47C7C501B401A9
:1038A0000E946E360E944C376DA77EA78FA798ABFB
:1038B000BE016F5F7F4FCE0143960E94A60850E085
:1038C00040E0BE016D5E7F4FCE0149960E941C090B
:1038D000CE0149960E94C80620E030E048EC52E450
:1038E0000E94923520E030E0A9010E948237BE019B
:1038F0006F5F7F4F87FD1EC7CE0107960E94A60807
:1039000050E040E0BE01695F7F4FCE010D960E94FE
:103910001C09CE010D960E94C80620E030E048EC5C
:1039200052E40E94923520E030E040E05FE30E94E4
:103930006E360E944C372B013C01CE010D960E9441
:10394000C109CE0107960E94C109CE0149960E9485
:10395000C109CE0143960E94C109BE016F5F7F4F2E
:10396000CE0143960E94A60841E050E0BE016D5E84
:103970007F4FCE0149960E941C09CE0149960E94B4
:10398000C80620E030E048EC52E40E94923520E086
:1039900030E0A9010E948237BE016F5F7F4F87FD33
:1039A000E7C6CE0107960E94A60841E050E0BE019E
:1039B000695F7F4FCE010D960E941C09CE010D96C6
:1039C0000E94C80620E030E048EC52E40E949235A4
:1039D00020E030E040E05FE30E946E360E944C370A
:1039E00069AB7AAB8BAB9CABCE010D960E94C10943
:1039F000CE0107960E94C109CE0149960E94C109D5
:103A0000CE0143960E94C109BE016F5F7F4FCE0178
:103A100043960E94A60842E050E0BE016D5E7F4FD3
:103A2000CE0149960E941C09CE0149960E94C80603
:103A300020E030E048EC52E40E94923520E030E093
:103A4000A9010E948237BE016F5F7F4F87FDAEC61E
:103A5000CE0107960E94A60842E050E0BE01695FD1
:103A60007F4FCE010D960E941C09CE010D960E943B
:103A7000C80620E030E048EC52E40E94923520E095
:103A800030E040E05FE30E946E360E944C376DAB41
:103A90007EAB8FAB98AFCE010D960E94C109CE01CF
:103AA00007960E94C109CE0149960E94C109CE0124
:103AB00043960E94C109BE016F5F7F4FCE010796FA
:103AC0000E94A60843E050E0BE01695F7F4FCE012F
:103AD0000D960E941C09CE010D960E94D3068B0103
:103AE000CE010D960E94C109CE0107960E94C10920
:103AF000C301B2010E9433355B016C016DA57EA547
:103B00008FA598A90E9433356DA77EA78FA798AB84
:103B10006DA17EA18FA198A50E9433356DA37EA3D0
:103B20008FA398A769A57AA58BA59CA50E9433357C
:103B30002B013C011F930F936DA97EA98FA998AD0E
:103B40000E9433359F938F937F936F9369A97AA9CE
:103B50008BA99CA90E9433359F938F937F936F937A
:103B6000EDA4FEA40FA518A92DA13EA14FA158A513
:103B7000C301B2010E94920BBE016F5F7F4FCE0165
:103B800007960E94A60850E040E0BE01695F7F4FA3
:103B9000CE010D960E941C09CE010D960E94C8060A
:103BA00060933603709337038093380390933903FF
:103BB000CE010D960E94C109CE0107960E94C1094F
:103BC000BE016F5F7F4FCE0107960E94A60841E0BD
:103BD00050E0BE01695F7F4FCE010D960E941C0927
:103BE000CE010D960E94C806609332037093330392
:103BF0008093340390933503CE010D960E94C10942
:103C0000CE0107960E94C109BE016F5F7F4FCE01B2
:103C100007960E94A60842E050E0BE01695F7F4F10
:103C2000CE010D960E941C09CE010D960E94C80679
:103C300060932E0370932F0380933003909331038E
:103C4000CE010D960E94C109CE0107960E94C109BE
:103C50000E94A20F0E948C0A6FEA72E086E894E04C
:103C60000E943108CE0101960E94C1090FB6F89456
:103C7000DEBF0FBECDBF68EA72E0CE0101960E94A2
:103C8000C008BE016F5F7F4F86E894E00E94DE06A9
:103C9000182FCE0101960E94C109112309F404C214
:103CA00060E084E20E94DB0366E874E0CE010196E6
:103CB0000E94D1088091360390913703A091380378
:103CC000B09139038DA79EA7AFA7B8AB80913203FF
:103CD00090913303A0913403B091350389AB9AAB33
:103CE000ABABBCAB80912E0390912F03A09130031E
:103CF000B09131038DAB9EABAFABB8AFBE016F5F80
:103D00007F4FCE0143960E94A60850E040E0BE01DE
:103D10006D5E7F4FCE0149960E941C09CE014996E7
:103D20000E94C80620E030E048EC52E40E94923540
:103D300020E030E0A9010E948237BE016F5F7F4F13
:103D400087FD52C5CE0107960E94A60850E040E0CC
:103D5000BE01695F7F4FCE010D960E941C09CE0106
:103D60000D960E94C80620E030E048EC52E40E9424
:103D7000923520E030E040E05FE30E946E360E9422
:103D80004C372B013C01CE010D960E94C109CE019A
:103D900007960E94C109CE0149960E94C109CE0131
:103DA00043960E94C109BE016F5F7F4FCE014396CB
:103DB0000E94A60841E050E0BE016D5E7F4FCE013B
:103DC00049960E941C09CE0149960E94C80620E02F
:103DD00030E048EC52E40E94923520E030E0A90146
:103DE0000E948237BE016F5F7F4F87FD1BC5CE01EA
:103DF00007960E94A60841E050E0BE01695F7F4F30
:103E0000CE010D960E941C09CE010D960E94C80697
:103E100020E030E048EC52E40E94923520E030E0AF
:103E200040E05FE30E946E360E944C376DA37EA394
:103E30008FA398A7CE010D960E94C109CE010796C7
:103E40000E94C109CE0149960E94C109CE01439644
:103E50000E94C109BE016F5F7F4FCE0143960E9451
:103E6000A60842E050E0BE016D5E7F4FCE0149964C
:103E70000E941C09CE0149960E94C80620E030E04D
:103E800048EC52E40E94923520E030E0A9010E9403
:103E90008237BE016F5F7F4F87FDE2C4CE01079678
:103EA0000E94A60842E050E0BE01695F7F4FCE014C
:103EB0000D960E941C09CE010D960E94C80620E0B6
:103EC00030E048EC52E40E94923520E030E040E0DF
:103ED0005FE30E946E360E944C3769A77AA78BA7D2
:103EE0009CA7CE010D960E94C109CE0107960E94A3
:103EF000C109CE0149960E94C109CE0143960E9494
:103F0000C109BE016F5F7F4FCE0107960E94A608D0
:103F100043E050E0BE01695F7F4FCE010D960E94E5
:103F20001C09CE010D960E94D3068B01CE010D9681
:103F30000E94C109CE0107960E94C109C301B201C6
:103F40000E9433355B016C011F930F9369A57AA51D
:103F50008BA59CA50E9433359F938F937F936F937E
:103F60006DA17EA18FA198A50E9433359F938F9359
:103F70007F936F93E12CF12C8701A8019701C80171
:103F8000B7010E94920BBE016F5F7F4FCE01079673
:103F90000E94A60850E040E0BE01695F7F4FCE015D
:103FA0000D960E941C09CE010D960E94C8062DA5F3
:103FB0003EA54FA558A90E946E36609336037093B4
:103FC00037038093380390933903CE010D960E94F6
:103FD000C109CE0107960E94C109BE016F5F7F4FE4
:103FE000CE0107960E94A60841E050E0BE01695F3D
:103FF0007F4FCE010D960E941C09CE010D960E94A6
:10400000C80629A93AA94BA95CA90E946E366093FB
:104010003203709333038093340390933503CE01BE
:104020000D960E94C109CE0107960E94C109BE01EA
:104030006F5F7F4FCE0107960E94A60842E050E0D6
:10404000BE01695F7F4FCE010D960E941C09CE0113
:104050000D960E94C8062DA93EA94FA958AD0E94F1
:104060006E3660932E0370932F03809330039093EA
:104070003103CE010D960E94C109CE0107960E9420
:10408000C1090E94A20F0E948C0A6FEA72E086E8C2
:1040900094E00E943108CE0101960E94C1090FB63A
:1040A000F894DEBF0FBECDBF86E10E94B203892B1C
:1040B00071F48091060381110AC0109236031092A8
:1040C000370310923803109239030E948C0A8AE158
:1040D0000E94B203892B71F48091060381110AC0FA
:1040E000109232031092330310923403109235036E
:1040F0000E948C0A8EE10E94B203892B71F4809198
:10410000060381110AC010922E0310922F03109201
:104110003003109231030E948C0A86E10E94B203A0
:10412000892B09F4BBC360E084E20E94DB036BEAE5
:1041300072E0CE0101960E94C008BE016F5F7F4F02
:1041400086E894E00E94DE06182FCE0101960E94B8
:10415000C109112309F455C080911D0381114BC081
:1041600080910B03811147C080910A03811143C0E4
:1041700080910F0381113FC060E084E20E94DB0365
:1041800061E082E20E94DB0381E080930F0380EA1A
:104190009FE09093FA028093F9021092F802109235
:1041A000F7020E94A20F6091F7027091F802CE010F
:1041B00007960E947A086EEA72E0CE0101960E948C
:1041C000C008BE01695F7F4FCE0101960E94FD07C6
:1041D00068E672E00E94E707BC0183EE93E00E946C
:1041E0003702CE0101960E94C109CE0107960E94B6
:1041F000C1090E94A20F6FEA72E086E894E00E9473
:10420000310860EB72E0CE0101960E94C008BE0149
:104210006F5F7F4F86E894E00E94DE06182FCE0184
:1042200001960E94C109112309F459C080911D0310
:1042300081114FC080910B0381114BC080910A0303
:10424000811147C080910F03882309F442C060E0C8
:1042500084E20E94DB0361E082E20E94DB0366E805
:1042600074E0CE0101960E94D10863EB72E0CE01AA
:1042700007960E94C008BE01695F7F4FCE0101967C
:104280000E94DE06182FCE0107960E94C109112355
:1042900019F081E08093F60266EB72E0CE0107969A
:1042A0000E94C008BE01695F7F4FCE0101960E9447
:1042B000DE06182FCE0107960E94C109112319F0BE
:1042C00081E08093F5020E94A20FCE0101960E9428
:1042D000C1096FEA72E086E894E00E94310880919B
:1042E000F502882309F400C460E084E20E94DB0345
:1042F00061E082E20E94DB0386E10E94B203892B27
:1043000009F40EC38AE10E94B203892B09F408C3A1
:104310000E942D0A86E10E94B203892B09F4CCC2C7
:104320008AE10E94B203892B09F4C6C288E20E9486
:10433000B203892B09F0C0C280911D038111BCC258
:1043400020E230E040E050E061E088E994E00E9443
:10435000DB042AE037ED43E25BE3609136037091C2
:10436000370380913803909139030E946D36609332
:10437000360370933703809338039093390320E218
:1043800030E040E050E060E082E994E00E94DB042D
:104390002AE037ED43E25BE360913203709133032F
:1043A00080913403909135030E946D3660933203FF
:1043B0007093330380933403909335030E946C0B06
:1043C0009BCF88E10E94B203892B11F40C947215E3
:1043D00088E20E94B203892B11F00C94721504E05C
:1043E00010E02091FC023091FD024091FE025091BC
:1043F000FF0260E088E994E00E94DB0460E084E270
:104400000E94DB0361E082E20E94DB03015011099C
:1044100041F72AE037ED43E25CE3609136037091A7
:10442000370380913803909139030E946E36609370
:1044300036037093370380933803909339030E94B7
:10444000A20F0E946C0B0C944F1586E10E94B203E0
:10445000892B11F40C94131688E20E94B203892B65
:1044600011F00C94131604E010E060E084E20E9466
:10447000DB0361E082E20E94DB032091FC023091C9
:10448000FD024091FE025091FF0261E088E994E054
:104490000E94DB040150110941F72AE037ED43E2A5
:1044A0005CE36091360370913703809138039091FB
:1044B00039030E946D3660933603709337038093FF
:1044C0003803909339030E94A20F0E946C0B0C9446
:1044D000F0158CE10E94B203892B11F40C94B416F0
:1044E00088E20E94B203892B11F00C94B41604E008
:1044F00010E060E084E20E94DB0361E082E20E945F
:10450000DB032091FC023091FD024091FE025091AC
:10451000FF0261E082E994E00E94DB04015011098E
:1045200041F72AE037ED43E25CE36091320370919A
:10453000330380913403909135030E946E3660936B
:1045400032037093330380933403909335030E94B6
:10455000A20F0E946C0B0C9491168AE10E94B20388
:10456000892B11F40C94551788E20E94B203892B11
:1045700011F00C94551704E010E060E084E20E9412
:10458000DB0361E082E20E94DB032091FC023091B8
:10459000FD024091FE025091FF0260E082E994E04A
:1045A0000E94DB040150110941F72AE037ED43E294
:1045B0005CE36091320370913303809134039091F6
:1045C00035030E946D3660933203709333038093FA
:1045D0003403909335030E94A20F0E946C0B0C943D
:1045E00032178EE10E94B203892B11F40C94F61756
:1045F00088E20E94B203892B11F00C94F61704E0B4
:1046000010E060E084E20E94DB0361E082E20E944D
:10461000DB032091FC023091FD024091FE0250919B
:10462000FF0260E08CE894E00E94DB040150110975
:1046300041F72AE037ED43E25CE360912E0370918D
:104640002F0380913003909131030E946D36609367
:104650002E0370932F0380933003909331030E94B5
:10466000A20F0E946C0B0C94D31780E20E94B2033D
:10467000892B11F40C94971888E20E94B203892BBD
:1046800011F00C94971804E010E060E084E20E94BE
:10469000DB0361E082E20E94DB032091FC023091A7
:1046A000FD024091FE025091FF0261E08CE894E02F
:1046B0000E94DB040150110941F72AE037ED43E283
:1046C0005CE360912E0370912F03809130039091F1
:1046D00031030E946E3660932E0370932F038093F4
:1046E0003003909331030E94A20F0E946C0B0C9434
:1046F0007418C701B6010E946D360C94301BC501B9
:10470000B4010E946D360C94551BC301B2010E9486
:104710006D360C947A1BC701B6010E946D3678C8BD
:10472000C701B6010E946D3698C8C501B4010E9448
:104730006D36B8C8CE0107960E94A60850E040E04A
:10474000BE01695F7F4FCE010D960E941C09CE010C
:104750000D960E94C80620E030E048EC52E40E942A
:10476000923520E030E040E05FE30E946D36E1C822
:10477000CE0107960E94A60841E050E0BE01695FA5
:104780007F4FCE010D960E941C09CE010D960E940E
:10479000C80620E030E048EC52E40E94923520E068
:1047A00030E040E05FE30E946D3618C9CE01079605
:1047B0000E94A60842E050E0BE01695F7F4FCE0133
:1047C0000D960E941C09CE010D960E94C80620E09D
:1047D00030E048EC52E40E94923520E030E040E0C6
:1047E0005FE30E946D3651C9CE0107960E94A6086C
:1047F00050E040E0BE01695F7F4FCE010D960E9400
:104800001C09CE010D960E94C80620E030E048EC5D
:1048100052E40E94923520E030E040E05FE30E94E5
:104820006D36ADCACE0107960E94A60841E050E061
:10483000BE01695F7F4FCE010D960E941C09CE011B
:104840000D960E94C80620E030E048EC52E40E9439
:10485000923520E030E040E05FE30E946D36E4CA2C
:10486000CE0107960E94A60842E050E0BE01695FB3
:104870007F4FCE010D960E941C09CE010D960E941D
:10488000C80620E030E048EC52E40E94923520E077
:1048900030E040E05FE30E946D361DCB8AE10E946C
:1048A000B203892B09F03FCC8EE10E94B203892B21
:1048B00009F039CC61E038CC88E20E94B203892B40
:1048C00021F480911D038823C9F081E080931D03AA
:1048D00010920D0362E572E086E493E00E94BE064A
:1048E00066E472E083EE93E00E94BE0688E994E0FD
:1048F0000E94D60482E994E00E94D60486E10E94D8
:10490000B203892B21F488E994E00E94D6048AE15D
:104910000E94B203892B21F482E994E00E94D6041C
:1049200086E10E94B203892B09F450C00E942D0A2F
:1049300086E10E94B203892B59F188E20E94B203FA
:10494000892B31F580911D03811122C021E330E0D4
:1049500040E050E061E088E994E00E94DB042AE056
:1049600037ED43E25BE3609136037091370380914A
:104970003803909139030E946D366093360370932B
:10498000370380933803909339030E946C0BC8CF90
:1049900088E20E94B203892B21F480911D038823B1
:1049A00089F081E080931D0310920D0362E572E0AF
:1049B00086E493E00E94BE0666E472E083EE93E034
:1049C0000E94BE0688E994E00E94D6048AE10E9413
:1049D000B203892B09F450C00E942D0A8AE10E947B
:1049E000B203892B59F188E20E94B203892B31F579
:1049F00080911D03811122C021E330E040E050E0AE
:104A000060E082E994E00E94DB042AE037ED43E2B3
:104A10005BE3609132037091330380913403909192
:104A200035030E946D366093320370933303809395
:104A30003403909335030E946C0BC8CF88E20E9428
:104A4000B203892B21F480911D03882389F081E032
:104A500080931D0310920D0362E572E086E493E0FB
:104A60000E94BE0666E472E083EE93E00E94BE06FA
:104A700082E994E00E94D60486E10E94B203892B69
:104A800099F58AE10E94B203892B71F56091F702D2
:104A90007091F8026F5F7F4F7093F8026093F70296
:104AA000CE0107960E947A086EEA72E0CE01019666
:104AB0000E94C008BE01695F7F4FCE0101960E942F
:104AC000FD0768E672E00E94E707BC0183EE93E011
:104AD0000E943702CE0101960E94C109CE010796BD
:104AE0000E94C1091092F5028091F602882309F410
:104AF00094C060E084E20E94DB0361E082E20E94F5
:104B0000DB0380E20E94B203892B09F450C00E94AB
:104B10002D0A80E20E94B203892B59F188E20E949B
:104B2000B203892B31F580911D03811122C021E34D
:104B300030E040E050E061E08CE894E00E94DB046B
:104B40002AE037ED43E25BE360912E0370912F037F
:104B500080913003909131030E946D3660932E0353
:104B600070932F0380933003909331030E946C0B5A
:104B7000C8CF88E20E94B203892B21F480911D03E3
:104B8000882389F081E080931D0310920D0362E574
:104B900072E086E493E00E94BE0666E472E083EE73
:104BA00093E00E94BE068CE894E00E94D60480E266
:104BB0000E94B203892B89F56091F7027091F80287
:104BC0006F5F7F4F7093F8026093F702CE010796F4
:104BD0000E947A086EEA72E0CE0101960E94C00837
:104BE000BE01695F7F4FCE0101960E94FD0768E616
:104BF00072E00E94E707BC0183EE93E00E94370257
:104C0000CE0101960E94C109CE0107960E94C109FA
:104C10001092F60281E08093F40269EB72E0CE011B
:104C200001960E94C008BE016F5F7F4F86E894E046
:104C30000E94DE06182FCE0101960E94C1091123A1
:104C400009F423C360E084E20E94DB0361E082E2B6
:104C50000E94DB0380911D03811111C380910B031E
:104C600081110DC380910A03811109C380910F0343
:104C7000882309F404C366E874E0CE0149960E94D3
:104C8000D108BE01675E7F4FCE0101960E94A60843
:104C900050E040E0BE016F5F7F4FCE014F960E9413
:104CA0001C09CE0101960E94C109BE01675E7F4FBB
:104CB000CE0101960E94A60847E050E0BE016F5F5A
:104CC0007F4FCE0107960E941C09CE0107960E94D5
:104CD000D3068B01CE0107960E94C109CE01019631
:104CE0000E94C1096CEB72E0CE014F960E94F9065A
:104CF000882309F4DDC60F3F100711F408EE13E016
:104D0000BE01675E7F4FCE010D960E94A60841E06E
:104D100050E0BE01635F7F4FCE0143960E941C09A5
:104D2000CE0143960E94C80620E030E048EC52E4F1
:104D30000E94923520E030E0A9010E948237BE0136
:104D4000675E7F4F87FDFBC3CE0101960E94A608D8
:104D500041E050E0BE016F5F7F4FCE0107960E9499
:104D60001C09CE0107960E94C80620E030E048ECFE
:104D700052E40E94923520E030E040E05FE30E9480
:104D80006E360E944C376DA77EA78FA798ABCE01D9
:104D900007960E94C109CE0101960E94C109CE0169
:104DA00043960E94C109CE010D960E94C109BE0121
:104DB000675E7F4FCE010D960E94A60842E050E04C
:104DC000BE01635F7F4FCE0143960E941C09CE0156
:104DD00043960E94C80620E030E048EC52E40E946E
:104DE000923520E030E0A9010E948237BE01675E63
:104DF0007F4F87FDC2C3CE0101960E94A60842E004
:104E000050E0BE016F5F7F4FCE0107960E941C09E4
:104E1000CE0107960E94C80620E030E048EC52E43C
:104E20000E94923520E030E040E05FE30E946E3661
:104E30000E944C376DA37EA38FA398A7CE0107963F
:104E40000E94C109CE0101960E94C109CE0143967C
:104E50000E94C109CE010D960E94C109BE01675E84
:104E60007F4FCE010D960E94A60843E050E0BE01A0
:104E7000635F7F4FCE0143960E941C09CE0143968B
:104E80000E94C80620E030E048EC52E40E949235CF
:104E900020E030E0A9010E948237BE01675E7F4FAB
:104EA00087FD89C3CE0101960E94A60843E050E029
:104EB000BE016F5F7F4FCE0107960E941C09CE0195
:104EC00007960E94C80620E030E048EC52E40E94B9
:104ED000923520E030E040E05FE30E946E360E94B1
:104EE0004C372B013C01CE0107960E94C109CE012F
:104EF00001960E94C109CE0143960E94C109CE01CC
:104F00000D960E94C109BE01675E7F4FCE010D96CE
:104F10000E94A60844E050E0BE01635F7F4FCE01CF
:104F200043960E941C09CE0143960E94C80620E0C9
:104F300030E048EC52E40E94923520E030E0A901D4
:104F40000E948237BE01675E7F4F87FD52C3CE014C
:104F500001960E94A60844E050E0BE016F5F7F4FBB
:104F6000CE0107960E941C09CE0107960E94C80632
:104F700020E030E048EC52E40E94923520E030E03E
:104F800040E05FE30E946E360E944C376B017C016B
:104F9000CE0107960E94C109CE0101960E94C10967
:104FA000CE0143960E94C109CE010D960E94C1090F
:104FB000BE01675E7F4FCE010D960E94A60845E0B8
:104FC00050E0BE01635F7F4FCE0143960E941C09F3
:104FD000CE0143960E94C80620E030E048EC52E43F
:104FE0000E94923520E030E0A9010E948237BE0184
:104FF000675E7F4F87FD1BC3CE0101960E94A60806
:1050000045E050E0BE016F5F7F4FCE0107960E94E2
:105010001C09CE0107960E94C80620E030E048EC4B
:1050200052E40E94923520E030E040E05FE30E94CD
:105030006E360E944C3769AB7AAB8BAB9CABCE0122
:1050400007960E94C109CE0101960E94C109CE01B6
:1050500043960E94C109CE010D960E94C109BE016E
:10506000675E7F4FCE010D960E94A60846E050E095
:10507000BE01635F7F4FCE0143960E941C09CE01A3
:1050800043960E94C80620E030E048EC52E40E94BB
:10509000923520E030E0A9010E948237BE01675EB0
:1050A0007F4F87FDE2C2CE0101960E94A60846E02E
:1050B00050E0BE016F5F7F4FCE0107960E941C0932
:1050C000CE0107960E94C80620E030E048EC52E48A
:1050D0000E94923520E030E040E05FE30E946E36AF
:1050E0000E944C3769A77AA78BA79CA7CE01079689
:1050F0000E94C109CE0101960E94C109CE014396CA
:105100000E94C109CE010D960E94C1098091F3024F
:10511000882371F189A59AA5ABA5BCA548165906A7
:105120006A067B0629F120E030E048EC52E4609109
:105130002E0370912F0380913003909131030E94D0
:1051400092354B015C0120E030E0A9010E948237DA
:1051500020E030E040E05FE387FDA5C2C501B40177
:105160000E946E360E944C372B013C011092F302D4
:1051700088E20E94B203892B09F09AC2C701B601E6
:105180000E9433355B016C01C301B2010E943335CB
:105190006DAB7EAB8FAB98AF6DA17EA18FA198A5B3
:1051A0000E9433356DA37EA38FA398A76DA57EA51E
:1051B0008FA598A90E9433352B013C011F930F93B3
:1051C00069A57AA58BA59CA50E9433359F938F93E3
:1051D0007F936F9369A97AA98BA99CA90E94333503
:1051E0009F938F937F936F93EDA8FEA80FA918AD9F
:1051F0002DA13EA14FA158A5C301B2010E94920B5F
:105200000FB6F894DEBF0FBECDBF80911D03811194
:105210004FC26091F7027091F8026F5F7F4F7093F9
:10522000F8026093F702CE0107960E947A086EEAB0
:1052300072E0CE0101960E94C008BE01695F7F4FF7
:10524000CE0101960E94FD0768E672E00E94E70722
:10525000BC0183EE93E00E943702CE0101960E94CA
:10526000C109CE0107960E94C1090E94A20FCE017A
:105270004F960E94C109CE0149960E94C1096FEA6A
:1052800072E086E894E00E9431086FEB72E0CE0194
:1052900001960E94C008BE016F5F7F4F86E894E0D0
:1052A0000E94DE06182FCE0101960E94C10911232B
:1052B00009F4BBC280911D038111B1C280910B031F
:1052C0008111ADC280910A038111A9C210910F030F
:1052D000112309F4A4C260E084E20E94DB0361E0D0
:1052E00082E20E94DB0366E874E083EE93E00E94B2
:1052F000370266E874E0CE010D960E94D10862EC98
:1053000072E0CE0101960E94C008BE016F5F7F4F20
:10531000CE010D960E94DE0681112AC065EC72E076
:10532000CE010D960E94F906811122C068EC72E050
:10533000CE010D960E94F90681111AC06BEC72E045
:10534000CE010D960E94F906811112C06FEC72E039
:10535000CE010D960E94F90681110AC063ED72E03C
:10536000CE010D960E94F90611E0811101C010E0F6
:10537000CE0101960E94C109112309F495C062EC87
:1053800072E0CE0101960E94C008BE016F5F7F4FA0
:10539000CE010D960E94DE06182FCE0101960E94C6
:1053A000C109112301F1BE01635F7F4FCE01019658
:1053B0000E94A60841E050E0BE016F5F7F4FCE0122
:1053C00007960E941C09CE0107960E94D30670938F
:1053D000FA026093F902CE0107960E94C109CE013C
:1053E00001960E94C10965EC72E0CE010D960E9403
:1053F000F906811163C168EC72E0CE010D960E943E
:10540000F906182F6BEC72E0CE010D960E94F9069A
:10541000111152C1811152C16FEC72E0CE010D9693
:105420000E94F90681117BC163ED72E0CE010D96F9
:105430000E94F906882361F060E672E086E493E05A
:105440000E94BE0610920803109207030E946A048D
:105450006091F7027091F8026F5F7F4F7093F802CE
:105460006093F702CE0107960E947A086EEA72E016
:10547000CE0101960E94C008BE01695F7F4FCE0138
:1054800001960E94FD0768E672E00E94E707BC01F2
:1054900083EE93E00E943702CE0101960E94C1097B
:1054A000CE0107960E94C10966ED72E0CE010D960D
:1054B0000E94F906811109C069ED72E0CE010D96D6
:1054C0000E94F906882309F4A4C180E20E94B20375
:1054D000892B09F47EC10E942D0A80E20E94B2034A
:1054E000892B09F458C188E20E94B203892B09F084
:1054F00052C180911D0381114EC121E330E040E093
:1055000050E061E08CE894E00E94DB042AE037ED93
:1055100043E25BE360912E0370912F03809130038F
:10552000909131030E946D3660932E0370932F0388
:1055300080933003909331030E946C0BC6CFCE0151
:1055400001960E94A60841E050E0BE016F5F7F4FC8
:10555000CE0107960E941C09CE0107960E94C8063C
:1055600020E030E048EC52E40E94923520E030E048
:1055700040E05FE30E946D3604CCCE0101960E94AC
:10558000A60842E050E0BE016F5F7F4FCE01079654
:105590000E941C09CE0107960E94C80620E030E058
:1055A00048EC52E40E94923520E030E040E05FE3B6
:1055B0000E946D363DCCCE0101960E94A60843E0C4
:1055C00050E0BE016F5F7F4FCE0107960E941C091D
:1055D000CE0107960E94C80620E030E048EC52E475
:1055E0000E94923520E030E040E05FE30E946D369B
:1055F00076CCCE0101960E94A60844E050E0BE01A0
:105600006F5F7F4FCE0107960E941C09CE0107965F
:105610000E94C80620E030E048EC52E40E94923537
:1056200020E030E040E05FE30E946D36ADCCCE017B
:1056300001960E94A60845E050E0BE016F5F7F4FD3
:10564000CE0107960E941C09CE0107960E94C8064B
:1056500020E030E048EC52E40E94923520E030E057
:1056600040E05FE30E946D36E4CCCE0101960E94DB
:10567000A60846E050E0BE016F5F7F4FCE0107965F
:105680000E941C09CE0107960E94C80620E030E067
:1056900048EC52E40E94923520E030E040E05FE3C5
:1056A0000E946D361DCDC501B4010E946D365ACDE4
:1056B00081E08093F202D9CD882389F16091F902CB
:1056C0007091FA02CE0107960E947A0866E872E0AD
:1056D000CE0101960E94C008BE01695F7F4FCE01D6
:1056E00001960E94FD0768E672E00E94E707BC0190
:1056F00086E493E00E943702CE0101960E94C10920
:10570000CE0107960E94C10981E080930803909121
:10571000F402992321F08093F3021092F40268ECD2
:1057200072E0CE010D960E94F906811108C06FEC5F
:1057300072E0CE010D960E94F906882349F160912E
:10574000F9027091FA02CE0107960E947A086FE77B
:1057500072E0CE0101960E94C008BE01695F7F4FD2
:10576000CE0101960E94FD0768E672E00E94E707FD
:10577000BC0186E493E00E943702CE0101960E94AC
:10578000C109CE0107960E94C10981E080930703F9
:105790000E946A0449CE88E20E94B203892B21F458
:1057A00080911D03882389F081E080931D0310926E
:1057B0000D0362E572E086E493E00E94BE0666E4B3
:1057C00072E083EE93E00E94BE068CE894E00E94B3
:1057D000D60480E20E94B203892B71F460E672E085
:1057E00086E493E00E94BE0661E084E20E94DB034F
:1057F00060E082E20E94DB0310920803109207032C
:1058000081E08093F2021092F6021092F5020E945B
:105810006A040E94A20FCE010D960E94C1096FEA90
:1058200072E086E894E00E9431088091F2028823B9
:1058300009F47DC060E082E20E94DB0361E084E263
:105840000E94DB0380911D0340912E0350912F0392
:105850006091300370913103882309F4D4C08091A2
:105860001003882309F47AC0CE0143960E944A08A7
:1058700040913203509133036091340370913503AA
:10588000CE010D960E944A0840913603509137038D
:105890006091380370913903CE0107960E944A083F
:1058A0006DED72E0CE0101960E94C008BE01695FF5
:1058B0007F4FCE0101960E94FD076DEE72E00E94BF
:1058C000E707BE01635F7F4F0E94FD076DEE72E048
:1058D0000E94E707BE016D5E7F4F0E94FD0768E6EC
:1058E00072E00E94E707BC0183EE93E00E9437025A
:1058F000CE0101960E94C109CE0107960E94C109FE
:10590000CE010D960E94C109CE0143960E94C109A5
:105910001092100362E572E086E493E00E94BE06F6
:1059200081E080930C0310920F031092F202E8962C
:105930000FB6F894DEBF0FBECDBFDF91CF911F91A0
:105940000F91FF90EF90DF90CF90BF90AF909F901E
:105950008F907F906F905F904F900895CE01439607
:105960000E944A08409132035091330360913403FE
:1059700070913503CE010D960E944A08409136037E
:10598000509137036091380370913903CE01079627
:105990000E944A0863EE72E0CE0101960E94C008A0
:1059A000BE01695F7F4FCE0101960E94FD076DEE3B
:1059B00072E00E94E707BE01635F7F4F0E94FD0710
:1059C0006DEE72E00E94E707BE016D5E7F4F0E94A0
:1059D000FD0768E672E00E94E707BC0183EE93E0F2
:1059E0000E943702CE0101960E94C109CE0107969E
:1059F0000E94C109CE010D960E94C109CE014396B5
:105A00000E94C10987CFCE0143960E944A08409167
:105A10003203509133036091340370913503CE010A
:105A20000D960E944A0840913603509137036091C9
:105A3000380370913903CE0107960E944A0869EE37
:105A400072E0CE0101960E94C008BE01695F7F4FDF
:105A5000CE0101960E94FD076DEE72E00E94E707FD
:105A6000BE01635F7F4F0E94FD076DEE72E00E94F2
:105A7000E707BE016D5E7F4F0E94FD0768E672E09A
:105A80000E94E707BC0183EE93E00E943702CE013B
:105A900001960E94C109CE0107960E94C109CE015C
:105AA0000D960E94C109CE0143960E94C1093BCFC9
:105AB0006FEE72E0CE014F960E94F906811120C967
:105AC000D4CB1F920F920FB60F9211240BB60F92E8
:105AD0002F933F934F935F936F937F938F939F93F6
